:100000000C9446000C9465000C9465000C946500FB
:100010000C9465000C9416050C948F050C946500E7
:100020000C9465000C9465000C9467000C946500BA
:100030000C9465000C9465000C9465000C946500AC
:100040000C9450100C9465000C9465000C946500A1
:100050000C9465000C9465000C9465000C9465008C
:100060000C9465000C9465000C9465000C9465007C
:100070000C9465000C9465000C9465000C9465006C
:100080000C9465000C9465000C94650011241FBE4F
:10009000CFEFD0E1DEBFCDBF19E0A0E0B1E0EAE2F2
:1000A000FFE200E00BBF02C007900D92A032B10743
:1000B000D9F71FE0A0E2B9E001C01D92AE3CB10744
:1000C000E1F70E94EC050C9493170C9400001F922A
:1000D0000F920FB60F9211248F939F9380912A094C
:1000E00090912B09892B91F080E188BB10922B090C
:1000F00010922A09809122099091230984BD9F9131
:100100008F910F900FBE0F901F90189518BA81E035
:1001100090E090932B0980932A09ECCF17B887E8D9
:1001200086B90895369A349BFECF24B145B1942FF9
:1001300080E030E0282B392BC901089583E082BB91
:1001400080B58B7F80BD1092710080E2809370003B
:1001500084E4809374000895982F84EA8093740057
:100160008091740087FFFCCF80917100887F883078
:1001700029F080917100887F803191F788E9809320
:10018000730084E8809374008091740087FFFCCF33
:1001900080917100887F8831B9F79093730084E86B
:1001A000809374008091740087FFFCCF8091710070
:1001B000887F8832B9F76093730084E88093740075
:1001C0008091740087FFFCCF80917100887F883216
:1001D000B9F784E9809374000895982F84EA809396
:1001E00074008091740087FFFCCF80917100887F3C
:1001F000883029F080917100887F803191F788E9FB
:100200008093730084E8809374008091740087FF6A
:10021000FCCF80917100887F8831B9F7909373008B
:1002200084E8809374008091740087FFFCCF8091F4
:100230007100887F8832B9F784E98093740008954B
:1002400084EA809374008091740087FFFCCF89E971
:100250008093730084E8809374008091740087FF1A
:10026000FCCF84EC809374008091740087FFFCCFF6
:100270003091730084E8809374008091740087FF4C
:10028000FCCF20917300932F80E044E940937400E9
:1002900030E0282B392BC90108950F931F93CF937A
:1002A000DF9308E010E0CFEFD0E080913509909126
:1002B000360960E070E044E359E00E94A10C65E17A
:1002C00070E00E941317C801861B970B9E0102C0A5
:1002D000359527958A95E2F72BBB80E060E040E0FA
:1002E0002AE030E00E94240AE0CFCF92DF92EF9222
:1002F000FF920F931F93DF93CF93CDB7DEB728976D
:100300000FB6F894DEBF0FBECDBF8FEF84BB8FE07A
:10031000809364006E010894C11CD11C90E1E92E09
:1003200097E2F92E809120099091210961E042E045
:1003300020E030E004E319E00E94660D8091370967
:100340009091380962E042E020E030E00E94660DC2
:1003500080912C0990912D0964E670E00E9413179A
:10036000CB0169307105D4F1E0E0F0E0809100014B
:100370008F8318868D831E82809101018B831C825E
:10038000E050FF4F808189831A8285BB80910A01EA
:100390008093650020E030E0C7010197F1F72F5FFF
:1003A0003F4F2430310594F4F901EE0FFF1FEC0D9F
:1003B000FD1D808185BBF901E65FFE4F8081809342
:1003C00065002130310541F7AF9AE6CF80E060E06B
:1003D00040E022E030E00E94240AA4CF0697039771
:1003E00018F0E4E0F0E0C2CFE2E0F0E0BFCFEF923F
:1003F000FF920F931F93CF93DF9328E0E22EF12C0F
:10040000CFEFD0E0809120099091210962E042E095
:1004100020E030E004E319E00E94660D8091280995
:100420009091290964E042E020E030E00E94660DEE
:100430008091260990912709892F8F7765E00E9486
:1004400007179701281B3109C9019E0102C0359584
:1004500027958A95E2F72BBB80E060E040E024E638
:1004600030E00E94240ACECF0F931F93CF93DF93E7
:100470008FEF84BB8FE080936400C0E4DFE1809164
:1004800020099091210962E042E020E030E004E39D
:1004900019E00E94660D809128099091290962E077
:1004A00042E020E030E00E94660D8091390D90918D
:1004B0003A0D62E042E020E030E00E94660D80915B
:1004C00026099091270997FD22C0492F4F77AAE06E
:1004D000B1E023E030E04531A0F0F901E85FF84FEA
:1004E000808185BB8D9180936500CE010197F1F7E6
:1004F000215030408FEF2F3F380709F4C0CF4531EE
:1005000060F7F901E45FF84F808185BBEBCF809500
:1005100090950197DACFCF92DF92EF92FF920F93EF
:100520001F93DF93CF9300D000D0CDB7DEB78FEF0E
:1005300084BB8FE0809364006E010894C11CD11CC1
:1005400030E4E32E3FE1F32E8091200990912109C0
:1005500062E042E020E030E004E319E00E94660D32
:10056000809128099091290961E042E020E030E083
:100570000E94660D8091390D90913A0D61E042E044
:1005800020E030E00E94660D209126093091270975
:1005900037FD41C0B3E1432F4F7727FD38C0A0E0BE
:1005A000E0E0F0E0842F6AE00E9407170E9407173E
:1005B000592F842F0E940717E050FF4F808185BB81
:1005C00080910A018093650020E030E0F7013197C7
:1005D000F1F72F5F3F4F243031050CF0B5CFA983E1
:1005E0009A835B83BC83F601E20FF31FE081F0E0A6
:1005F000E050FF4F808185BBF901E65FFE4F8081AF
:10060000809365002130310509F7AF9ADFCFA5E06F
:10061000E5E0F0E0C7CFB1E12095309521503040C2
:10062000BACF8F929F92AF92BF92CF92DF92EF920A
:10063000FF920F931F93CF93DF9381E184BD83E0FB
:1006400085BD80E187BB10E4812E1CE9912EC0E9B5
:10065000D1E0809120099091210961E042E020E001
:1006600030E004E319E00E94660D80913709909113
:10067000380961E042E020E030E00E94660D8091A0
:100680002C0990912D0964E670E00E9413178827C9
:1006900077FD8095982F0E9441147B018C0120E00A
:1006A00030E040E051E40E94811318160CF09BC02A
:1006B0000F2EF0E0CF2EF0E0DF2EF0E0EF2EFFE384
:1006C000FF2EF02DE0912409F091250980912E094B
:1006D00090912F09EE0FFF1FE450F94F880F991FDB
:1006E0000190F081E02DE80FF91F808191819093B6
:1006F0002309809322096091220970912309809136
:100700003509909136090E94870C809122099091B9
:1007100023098F5F9F4F09F490C080912209909127
:1007200023098E5F9F4F09F4AAC087B7806487BFF3
:10073000E0912409F091250900912E0910912F09CB
:10074000EE0FFF1FEE5FF84FC801880F991F880F4B
:10075000991F0190F081E02DE80FF91FC701B60144
:1007600020813181428153810E9487125B016C019B
:100770000F5F1F4F10932F0900932E0920E030E0E8
:100780004AE755E40E9487127B018C0120E030E0AB
:1007900040E85FE30E94E11388230CF4D6C0C8014F
:1007A000B70120E03FEF4FE757E40E94811318168E
:1007B0000CF0BDC0C601B50120E030E040E251E4DC
:1007C0000E9487120E94B110CB01672B29F0FE0115
:1007D0003197F1F70197D9F787B78F7B87BFC401AE
:1007E0000197F1F736CFC801B70120E030E040E0D3
:1007F00051E40E9411141816ACF0C801B70120E0B2
:1008000030E040EA50E40E94811318165CF40F2E89
:10081000FDECCF2EFCECDF2EFCECEF2EFEE3FF2EEA
:10082000F02D50CF0F2EFAE9CF2EF9E9DF2EF9E99E
:10083000EF2EFEE3FF2EF02D45CF809124099091FD
:100840002509019690932509809324098091240914
:100850009091250963E070E00E9413179093250999
:100860008093240910922F0910922E0928EB3BE067
:10087000CE010197F1F721503040D1F7EACE87B78A
:100880008F7B87BFE0912409F091250900912E0903
:1008900010912F09EE0FFF1FEE5FF84FC801880F70
:1008A000991F880F991F0190F081E02DE80FF91F23
:1008B000C701B60120813181428153810E94871294
:1008C0005B016C010F5F1F4F10932F0900932E09DE
:1008D00020E030E04AE755E40E9487127B018C015A
:1008E00020E030E040E85FE30E94E11388230CF44D
:1008F00037C0C801B70120E03FEF4FE757E40E943F
:10090000811318162CF5C601B50120E030E040E255
:1009100051E40E9487120E94B110CB01672B09F4A9
:1009200098CEFE013197F1F70197D9F792CEC80121
:10093000B7010E94B110CB010197F1F787B78F7B08
:1009400087BFC4010197F1F784CE61E070E0F3CF77
:10095000C801B7010E94B110CB010197F1F779CE20
:1009600061E070E0F9CF0F931F938091200990917F
:10097000210961E042E020E030E004E319E00E9458
:10098000660DE0913709F09138091382F8940E94BE
:10099000920090932D0980932C09789480913709C7
:1009A0009091380963E041E098010E94EF0C80E0EB
:1009B00060E040E024EF31E00E94240AD6CF0F939C
:1009C0001F9381E060E00E94AC0080E00E94ED0097
:1009D000809120099091210962E042E020E030E01E
:1009E00004E319E00E94660D80912809909129097D
:1009F00060E041E098010E94EF0CF8940E94200111
:100A000090932709809326097894809128099091E2
:100A1000290967E041E098010E94EF0C80E060E066
:100A200040E024E630E00E94240AD2CF1F920F92C9
:100A30000FB60F920BB60F9211242F933F934F9343
:100A40005F936F937F938F939F93AF93BF93EF9336
:100A5000FF938091320990913309892BD1F0E09175
:100A6000390DF0913A0D138280913009909131093E
:100A7000892B09F444C01092310910923009CF013A
:100A800061E041E024E339E00E94EF0C2CEB32E01E
:100A90001BC0809124099091250901969093250906
:100AA00080932409809124099091250963E070E0E6
:100AB0000E941317909325098093240910922F09FF
:100AC00010922E092CEB32E040E951E0CA01019767
:100AD000F1F721503040D1F7FF91EF91BF91AF91E5
:100AE0009F918F917F916F915F914F913F912F9146
:100AF0000F900BBE0F900FBE0F901F90189581E0C6
:100B000090E09093310980933009CF0162E041E099
:100B100024E339E00E94EF0C2CEB32E0D5CF1F929A
:100B20000F920FB60F920BB60F9211242F933F9393
:100B30004F935F936F937F938F939F93AF93BF93E5
:100B4000EF93FF93E0912009F091210913828091A6
:100B5000320990913309892B59F11092330910927F
:100B6000320987B7806487BFCF0161E041E024E3A9
:100B700039E00E94EF0C2CEB32E040E951E0CA0171
:100B80000197F1F721503040D1F7FF91EF91BF91DC
:100B9000AF919F918F917F916F915F914F913F9115
:100BA0002F910F900BBE0F900FBE0F901F901895B6
:100BB00081E090E090933309809332091BBA87B7A4
:100BC0008F7B87BFCF0162E041E024E339E00E94E0
:100BD000EF0C2CEB32E0D1CF0F931F930E94080F44
:100BE000F89410923309109232091092250910924C
:100BF000240910922F0910922E0910922D0910929B
:100C00002C09109231091092300987E083BF81E4EA
:100C100087BF84E682BF8AB38FEF8ABB8FEC82B92D
:100C20008AE08ABF80E389BF17B887E886B90E9447
:100C30009E007894789404E319E080E0B8010E9463
:100C4000A107909329098093280981E0B8010E94A7
:100C5000A10790933A0D8093390D80E0B8010E946E
:100C6000A107909338098093370981E0B8010E9469
:100C7000A107909321098093200980E090E00E94D1
:100C80008108909336098093350983EB94E060E006
:100C900070E048EB59E020E00E94520B85E791E0BC
:100CA00060E070E048E35AE021E00E94520B8DE4DE
:100CB00091E060E070E048EB5AE022E00E94520BC5
:100CC00081E193E060E070E048E35BE023E00E94B4
:100CD000520B8FED94E060E070E048EB5BE024E0C5
:100CE0000E94520B87EF91E060E070E048E35CE027
:100CF00025E00E94520B8BE892E060E070E048EB48
:100D00005CE026E00E94520B84E392E060E070E039
:100D100048E35DE027E00E94520B0E94880E80E0CD
:100D200090E01F910F910895FA018083929312929F
:100D30001292129212921292129212921292129293
:100D40001292129212921292129212921292129283
:100D50001292129212921292129212921292629322
:100D60007293129212921292129212921292129202
:100D700080E882933197CF010895089508950895EA
:100D800008950895089508950895089580913C0D5B
:100D9000813009F0089580910B0E8F3FD9F38F5F5A
:100DA00080930B0E089580913C0D813009F00895D9
:100DB000F89480913B0D8F3F19F08F5F80933B0D2E
:100DC000789408958CEF90E00895FF920F931F930D
:100DD000CF93DF93EC018B01F42E3981E32FF0E008
:100DE000E85EF84F2081422F50E0FA01E05FF84FB3
:100DF0007081DC01A40FB51F16969C911697E92F00
:100E0000F0E0E85EF84F8081E82FF0E0E05FF84F17
:100E10006081220F220F220F280F862F80958923B1
:100E200016968C93882321F4872F80953823398355
:100E3000E22FF0E0EE0FFF1FE055F04F0190F08140
:100E4000E02D1486138617821682118700878F2D56
:100E50008095958589238587882359F48091050E8F
:100E6000872B8093050EFA01EA5FF14F8081682B92
:100E70006083822FDF91CF911F910F91FF90089592
:100E8000CF93DF93EC01A0910C0EB0910D0E17964D
:100E90009C938E93169750968C915097482F50E0C4
:100EA00051963C915197FA01EA5FF14F832F80955B
:100EB0009081892380838823A9F452962C91922FC4
:100EC00090958091050E89238093050EFE01E40F15
:100ED000F51F8681832B86838981822B8983DF910D
:100EE000CF91089552962C91F1CFCF93DF93EC01DF
:100EF000A0910C0EB0910D0E50968C915097FE0162
:100F0000E80FF11D51968C91519780959681892318
:100F10008683882339F452969C91529790958981C3
:100F2000892389831D961C921D9717961C921E92E9
:100F30001697DF91CF910895FC01118216821782D6
:100F40000895282FDB0180910B0E8823D9F4F894A3
:100F5000E091AD0FF091AE0F309779F081819281E1
:100F60009093AE0F8093AD0F85E080832383128230
:100F7000118278941C92CF01089578948AE98C9319
:100F8000CF0108958DE88C93E0E0F0E0F4CFEF928C
:100F9000FF920F931F93CF93DF937C01FB01A091EE
:100FA0000C0EB0910D0E1D968C911D9780621D96B2
:100FB0008C931D971C961C930E931B97408721873B
:100FC000B583A483E70189819A8191838083138209
:100FD0001282F782E68289819A81009719F0EC01EA
:100FE0007B836A83E701FA83E9835096EC915097FB
:100FF000F0E0EA5FF14F51968C9151978095908186
:1010000089238083882341F452969C919095809106
:10101000050E89238093050EDF91CF911F910F91CB
:10102000FF90EF90089522E43DE0F901CF0104968E
:10103000108292838183FC018DE0E235F807B1F7DD
:10104000128211823093AE0F2093AD0F0895CF938B
:10105000DF93FC01A281B381C081D181109751F04F
:101060001196DC93CE93209711F0BB83AA83DF9176
:10107000CF9108950680F781E02DD283C183209718
:10108000B1F31B821A82DF91CF9108951F93CF9302
:10109000DF93EC01AC81BD811C961C921E921B97C4
:1010A0001A966C931A971D968C911D978F7D1D969D
:1010B0008C931D978823E1F48091050E52969C91A4
:1010C0005297892B8093050E5096EC915097F0E043
:1010D000EA5FF14F808151969C91892B808311E0CA
:1010E000CE010E942708812FDF91CF911F91089593
:1010F00010E0CE010E942708812FDF91CF911F9130
:1011000008959C0180910B0E8823D9F4F894E09106
:10111000080EF091090E309731F0848195819093FB
:10112000090E8093080E7894309749F081E080830F
:101130001382128235832483118216821782CF0193
:101140000895E0E0F0E0CF0108959C0180910B0E3E
:10115000882309F052C0F894E091080EF091090E2E
:10116000309731F0848195819093090E8093080E19
:1011700078943097A9F1F894A091030EB091040EE1
:10118000109781F18D919C9111979093040E80930B
:10119000030E789413963C932E931297CB01880FED
:1011A000991F820F931F15969C938E9314971796F1
:1011B0003C932E93169719963C932E9318971B9653
:1011C0007C936E931A971D961C921E921C9782E038
:1011D000808313821282B583A483118216821782C0
:1011E000CF0108958091080E9091090E9583848314
:1011F000F093090EE093080E7894E0E0F0E0CF0160
:10120000089583EF9DE09093E60D8093E50D0E9792
:101210001092F40D1092F30D9093040E8093030E30
:1012200008959C0180910B0E8823D9F4F894E091E5
:10123000080EF091090E309731F0848195819093DA
:10124000090E8093080E7894309749F083E08083EC
:101250003383228315821482118216821782CF0172
:101260000895E0E0F0E0CF0108951F93CF93DF935E
:10127000182FF894C091E10DD091E20D209709F458
:1012800056C08A819B819093E20D8093E10D789402
:10129000798368831E871D861C861B86E12FE69551
:1012A000E695E695E88BF0E0E05FF84F80818A8B69
:1012B000E12FE770EF87F0E0E05FF84F8081898BE6
:1012C0001F821E8219861886CE010E94C506CE0195
:1012D0000E94BD06F894E12FF0E0EE0FFF1FE055ED
:1012E000F04FD183C083E091570DF091580DFB83EF
:1012F000EA831D821C82309711F0D583C483D0937A
:10130000580DC093570D8091050E9A89892B8093B3
:10131000050EE889F0E0EA5FF14F80819989892B19
:101320008083789480E0DF91CF911F910895789425
:1013300086E4DF91CF911F910895F89480913D0D3F
:1013400090913E0DA0913F0DB091400D0196A11DD1
:10135000B11D80933D0D90933E0DA0933F0DB09332
:10136000400D78940E94C406E8CFF89480910B0E4B
:10137000882309F03FC080913B0D8823D9F5E09187
:10138000050EF0E0E85EF84F8081E82FF0E0EA5FBC
:10139000F14FE081F0E0E85EF84F982F990F990F38
:1013A000990F8081980F9093410D8091560D981759
:1013B00009F1E92FF0E0EE0FFF1FE055F04F8081BB
:1013C00091819093020E8093010E8091D90D90919E
:1013D000DA0DA091DB0DB091DC0D0196A11DB11DC0
:1013E0008093D90D9093DA0DA093DB0DB093DC0DB3
:1013F0000E94B60F789408959C01009721F1F8940B
:10140000A0910C0EB0910D0E5096EC915097F0E01B
:10141000EA5FF14F51968C91519780959081892385
:101420008083882349F452969C915297909580919D
:10143000050E89238093050E1C963C932E931B97D3
:1014400078940E94B50908958F929F92AF92BF92AF
:10145000CF92DF92EF92FF920F931F93CF93DF9380
:10146000882E162F942E8823C9F01C3300F58BE3A9
:10147000891590F093E0283E3907D8F083E5DF9195
:10148000CF911F910F91FF90EF90DF90CF90BF9081
:10149000AF909F908F90089582E5F1CF662329F752
:1014A000442329F72115310529F784E5E8CF81E5A3
:1014B000E6CFB90180E090E024E630E040E050E083
:1014C0000E94E8166C507E4F8F4F9F4F28EE33E0FE
:1014D00040E050E00E94261759016A01612F70E038
:1014E00080E090E02CE330E040E050E00E94E8161D
:1014F0007B018C01E90CF11C011D111D682D70E0B0
:1015000080E090E020E13EE040E050E00E94E816FC
:10151000E60EF71E081F191FC801B70124E630E0C8
:1015200040E050E00E94E816A60EB71EC81ED91E65
:10153000760100271127E7018FEF9FEFA0E0B0E0D1
:10154000A822B922CA22DB22C5010E94FC09EF2889
:1015500051F080E090E80E94FC0980E090E80E9451
:10156000FC092197B1F780E08ACFDF92EF92FF92DA
:101570000F931F938091AF0F882341F488EC90E084
:101580000E94FC098091AF0F8823C1F36091DD0DAB
:101590007091DE0D8091DF0D9091E00D24E630E03A
:1015A00040E050E00E942617C901DA017C018D015C
:1015B000E4E6DE2E10C0A80197010E9426178D2DAB
:1015C000821B87FD44C08093E30D0E94C00684E621
:1015D00090E00E94FC09F89480913D0D90913E0DA1
:1015E000A0913F0DB091400D8093CA0F9093CB0F07
:1015F000A093CC0FB093CD0F60913D0D70913E0D37
:1016000080913F0D9091400D10923D0D10923E0D36
:1016100010923F0D1092400D7894E114F1040105F1
:10162000110549F61092E30D6091DD0D7091DE0D0C
:101630008091DF0D9091E00D24E630E040E050E035
:101640000E942617C901DA017C018D01BECF1092DC
:10165000E30DBBCF82E090E00E94FC09F894109269
:101660003D0D10923E0D10923F0D1092400D78945A
:1016700084E690E00E94FC09F89480913D0D9091E1
:101680003E0DA0913F0DB091400D8093DD0D9093E4
:10169000DE0DA093DF0DB093E00D81E08093AF0FDE
:1016A00078940895AF92BF92CF92DF92EF92FF921B
:1016B0000F931F93CF93DF93FC01122FF894C22F47
:1016C000D0E0CC0FDD1FC055D04F88819981892B88
:1016D00071F0789418E2812FDF91CF911F910F91D3
:1016E000FF90EF90DF90CF90BF90AF90089581E092
:1016F00090E0998388837894CF0120E030E00E94C5
:101700009406BC01812F40E050E020E030E0EE2460
:10171000FF248701CC24DD24AA24BB240E943509A0
:10172000182F882371F4F8948091E40D8F5F8093D3
:10173000E40D789480913C0D813069F60E94B509E2
:10174000CACFF894198218827894C5CFFC01F89416
:101750008181882379F4828193812FEF8F3F9207D3
:1017600031F0019693838283789480E00895789491
:1017700082E30895CF0160E070E041E00E94E50659
:1017800078940E94B50980E008950F931F93CF933A
:10179000DF93EC018A0180910B0E882381F4F89489
:1017A0008A819B81009799F001979B838A83789423
:1017B000FA011082DF91CF911F910F91089582E07D
:1017C000FA018083DF91CF911F910F910895E091ED
:1017D0000C0EF0910D0E8585816085877487638777
:1017E000CE010E94400778940E94B509F894E091D8
:1017F0000C0EF0910D0E858580FD0AC017821682B1
:101800007894F8011082DF91CF911F910F91089584
:10181000CE010E94750778948AE0F8018083CACFD0
:10182000EF92FF920F931F93CF93DF938C017A0176
:1018300080910B0E882309F05CC0F894F801A48114
:10184000B5811C968D919C911D97009709F1189672
:10185000ED91FC911997C191D1911996FC93EE935A
:10186000189701971D969C938E931C9714968D91B3
:101870009C911597E817F90799F17894F701108270
:10188000CE01DF91CF911F910F91FF90EF900895BE
:10189000E0910C0EF0910D0E85858460858774872C
:1018A0006387C8010E94400778940E94B509F894A4
:1018B000E0910C0EF0910D0EC085D1852097F9F0C6
:1018C000118610861586178216827894F701108289
:1018D000CE01DF91CF911F910F91FF90EF9008956E
:1018E00012968D919C91139719969C938E931897AD
:1018F000C4CF82E0FA018083C0E0D0E0C1CFC8014C
:101900000E94750778948AE0F7018083B9CFFC01C3
:10191000F8948181882339F484819581892B61F041
:10192000789484E10895CF0142E00E94E50678941E
:101930000E94B50980E0089575836483789480E0FF
:101940000895EF92FF920F931F93CF93DF938C0133
:101950007A0180910B0E8823A1F5F894F801C481D7
:10196000D581209769F0158214827894FA0110824B
:10197000CE01DF91CF911F910F91FF90EF900895CD
:10198000E0910C0EF0910D0E85858260858774873D
:101990006387C8010E94400778940E94B509F894B3
:1019A000E0910C0EF0910D0EC085D185209779F055
:1019B000118610861586178216827894F701108298
:1019C000D7CF82E0FA018083C0E0D0E0D1CFC80158
:1019D0000E94750778948AE0F7018083C9CFCF927F
:1019E000DF92EF92FF920F931F93DF93CF930F92AB
:1019F000CDB7DEB78C017901F894442309F054C0C7
:101A00006095FC01838186238383F801C180D280A5
:101A1000C114D10409F458C019820AC08330B1F14D
:101A2000F601808191819C01690121153105D1F078
:101A3000F6018185823091F7F6016085F801838196
:101A40008623681769F7C6010E944608813041F76E
:101A5000F1E0F983F601808191819C0169012115F2
:101A6000310531F77894F981F13059F1F894F801A2
:101A700083817894F70110820F90CF91DF911F91AD
:101A80000F91FF90EF90DF90CF900895F601608561
:101A9000F8018381682309F4C3CFC6010E94460878
:101AA000813009F0BDCFD4CF413031F0789489E94D
:101AB000F901808380E0E0CFFC018381862B838362
:101AC000A4CF0E94B509D2CF1982CCCF8F929F921A
:101AD000AF92BF92CF92DF92FF920F931F93DF934B
:101AE000CF93CDB7DEB72B970FB6F894DEBF0FBEFE
:101AF000CDBF6C01562FF42EF901580180910B0EC9
:101B0000882309F547FD24C01B86F89482E0F81667
:101B100039F1A3E0FA16C9F1789487E9F5018083D9
:101B200080E02B960FB6F894DEBF0FBECDBFCF91ED
:101B3000DF911F910F91FF90DF90CF90BF90AF90FA
:101B40009F908F90089582E0D8018C9380E0E9CF38
:101B5000BFE7FB2221E02B87F89482E0F816C9F654
:101B6000D60113969C91852F8923851709F5BB858E
:101B7000B13031F4852F80958923F6018383982F26
:101B8000892F7894D5011C92CCCFD60113969C91C5
:101B9000852F892369F1BB85B13029F4809589238C
:101BA000F6018383982F892F7894D5011C92B9CFA1
:101BB000C6014E010894811C911CB401452F22E0FE
:101BC0008F010E94C70778940E94B509F894E091AC
:101BD0000C0EF0910D0E858585FD17C0BB85B130CB
:101BE00011F1F6019381892F7894D5011C9299CF38
:101BF000C6014E010894811C911CB401452F23E0BD
:101C00008F010E94C7077894DFCFC4010E94270884
:101C1000E0910C0EF0910D0E158678948AE0D501B6
:101C20008C9380E07ECF2EEFF20E81E08F1520F4B2
:101C3000D60113969C91D7CF82858095F60193812A
:101C400098239383D0CF80913C0D813009F0089583
:101C5000F89480913B0D882359F0815080933B0D7F
:101C6000882321F480910B0E882321F07894089525
:101C70007894089578940E94B50908950E94C10649
:101C800080913C0D813009F00895A091570DB091DD
:101C9000580D1E968C911E978C30B1F32091050E35
:101CA00041E050E01AC052968C915297282B5096E2
:101CB000EC915097F0E0EA5FF14F808151969C9152
:101CC0005197892B808312960D90BC91A02D78940A
:101CD0001E968C911E978C30C1F0F8941B968D91B6
:101CE0009C911C97009779F301971C969C938E9377
:101CF0001B97892B41F71D968C911D9783FFD3CF9E
:101D00001C965C934E931B97DECF2093050E08958F
:101D100080913C0D81110895E091050EF0E0E85EA0
:101D2000F84FA081EA2FF0E0EA5FF14FE081F0E0A8
:101D3000E85EF84FAA0FAA0FAA0F8081A80FA09300
:101D4000410DA093560DB0E0AA0FBB1FA055B04F98
:101D50008D919C919093020E8093010E90930D0EA5
:101D600080930C0E0E94820F089580913C0D81306B
:101D700009F00895F89480910B0E882339F0815072
:101D800080930B0E882311F07894089580913B0D79
:101D90008823D1F7E091050EF0E0E85EF84F8081EE
:101DA00080930A0EE82FF0E0EA5FF14FE081F0E067
:101DB000E85EF84F982F990F990F990F8081980F2F
:101DC0009093410D8091560D9817F1F2E92FF0E0B4
:101DD000EE0FFF1FE055F04F808191819093020E2E
:101DE0008093010E8091D90D9091DA0DA091DB0DB9
:101DF000B091DC0D0196A11DB11D8093D90D90937A
:101E0000DA0DA093DB0DB093DC0D0E941910BCCF4E
:101E10000E94C20610920B0E10923B0D1092E40D20
:101E200010923C0D1092D90D1092DA0D1092DB0D2C
:101E30001092DC0D10923D0D10923E0D10923F0D50
:101E40001092400D1092050E1092060E1092070E81
:101E50001092560D1092410D1092020E1092010E2A
:101E600010920D0E10920C0E1092580D1092570DEC
:101E7000E0EBFFE0119211922FE0EA3CF207D1F77C
:101E800089EC9EE0FC0171979183808343962FE05B
:101E90008D3A9207B9F710929D0F10929C0F86EB26
:101EA0009EE09093E20D8093E10D2EE83EE0F90173
:101EB000CF010896108295838483FC018EE0EE3A70
:101EC000F807B1F71082158214823093090E20931F
:101ED000080E0E9413080E9401098DE999E060E054
:101EE00070E04DE85EE02CE00E94520B85EB9AE03A
:101EF00060E070E048ED5DE02BE00E94520B0E9434
:101F0000C30608950E94BF0600913C0D03950093FF
:101F10003C0DE091010EF091020EC191CDBFD19127
:101F2000DEBF0F910FBF0F910BBFFF91EF91DF91BC
:101F3000CF91BF91AF919F918F917F916F915F9161
:101F40004F913F912F911F910F91FF90EF90DF9054
:101F5000CF90BF90AF909F908F907F906F905F9049
:101F60004F903F902F901F900F9008950F921F92C7
:101F70002F923F924F925F926F927F928F929F9299
:101F8000AF92BF92CF92DF92EF92FF920F931F9387
:101F90002F933F934F935F936F937F938F939F9371
:101FA000AF93BF93CF93DF93EF93FF930BB70F9351
:101FB0000FB70F93E0910C0EF0910D0ECDB7C193BA
:101FC000DEB7D1930E94BF060091410D0093560DDC
:101FD000E091010EF091020EE0930C0EF0930D0EC5
:101FE000C191CDBFD191DEBF0F910FBF0F910BBF3C
:101FF000FF91EF91DF91CF91BF91AF919F918F9121
:102000007F916F915F914F913F912F911F910F9110
:10201000FF90EF90DF90CF90BF90AF909F908F9008
:102020007F906F905F904F903F902F901F900F90F8
:1020300008950E94BF060091410D0093560DE09156
:10204000010EF091020EE0930C0EF0930D0EC19173
:10205000CDBFD191DEBF0F910FBF0F910BBFFF918D
:10206000EF91DF91CF91BF91AF919F918F917F9130
:102070006F915F914F913F912F911F910F91FF9021
:10208000EF90DF90CF90BF90AF909F908F907F9018
:102090006F905F904F903F902F901F900F900895FA
:1020A0000F921F922F923F924F925F926F927F9268
:1020B0008F929F92AF92BF92CF92DF92EF92FF9258
:1020C0000F931F932F933F934F935F936F937F9340
:1020D0008F939F93AF93BF93CF93DF93EF93FF9330
:1020E0000BB70F930FB700680F9300910B0E03957A
:1020F00000930B0E013041F4CDB7DEB7E0910C0E2A
:10210000F0910D0EC193D19304E602BF78940E9422
:102110003E0E00000E94B50E0F910FBF0F910BBF36
:10212000FF91EF91DF91CF91BF91AF919F918F91EF
:102130007F916F915F914F913F912F911F910F91DF
:10214000FF90EF90DF90CF90BF90AF909F908F90D7
:102150007F906F905F904F903F902F901F900F90C7
:102160000895EF92FF920F931F937B018C0120E063
:1021700030E040E05FE40E94B11388238CF0C80196
:10218000B70120E030E040E05FE40E9429120E94A5
:102190009F149B01AC01205030404040504806C085
:1021A000C801B7010E949F149B01AC01B901CA018B
:1021B0001F910F91FF90EF900895A0E0B0E0E3EE43
:1021C000F0E10C945C17DC012B01FA019C91923038
:1021D00008F439C1EB018881823008F433C19430AE
:1021E00069F4843009F02FC111969C91119789816F
:1021F000981709F428C1A8E1B8E025C1843009F492
:1022000021C18230A9F4923009F01DC19A01AD01BB
:1022100088E0EA010990AE01E90109929E0181502E
:10222000C1F7E201898111969C918923818308C1BC
:10223000923009F407C112962D903C901397EB0150
:102240008A819B811496AD90BD90CD90DC901797BC
:10225000EC80FD800E811F819101281B390BB90193
:1022600037FF04C066277727621B730B6032710546
:102270000CF061C0121613066CF537014801062EEA
:1022800004C096948794779467940A94D2F721E0D7
:1022900030E040E050E004C0220F331F441F551FC0
:1022A0006A95D2F721503040404050402E213F21C6
:1022B00040235123211531054105510521F021E02D
:1022C00030E040E050E079018A01E628F72808294B
:1022D00019293CC0232BD1F1260E371E35014601AA
:1022E000062E04C096948794779467940A94D2F744
:1022F00021E030E040E050E004C0220F331F441FD3
:10230000551F6A95D2F721503040404050402A2155
:102310003B214C215D21211531054105510521F05D
:1023200021E030E040E050E059016A01A628B728DA
:10233000C828D9280BC0821593052CF01C01AA24AB
:10234000BB24650103C0EE24FF24870111969C91F4
:10235000D20111968C91981709F445C0992339F050
:10236000A80197012A193B094C095D0906C0A6017D
:1023700095012E193F09400B510B57FD08C01182E2
:102380003382228224833583468357831DC081E0B4
:1023900081833382228288279927DC01821B930B59
:1023A000A40BB50B84839583A683B7830DC0220F3E
:1023B000331F441F551F24833583468357838281EF
:1023C000938101979383828324813581468157814C
:1023D000DA01C9010197A109B1098F5F9F4FAF4F82
:1023E000BF4328F30BC0918333822282EA0CFB1C8B
:1023F0000C1D1D1DE482F5820683178383E0808314
:10240000248135814681578157FF1AC0C901AA2707
:1024100097FDA095BA2F81709070A070B0705695FE
:10242000479537952795822B932BA42BB52B848327
:102430009583A683B7838281938101969383828358
:10244000DF0101C0D201CD01CDB7DEB7E2E10C94CE
:102450007817A0E2B0E0EFE2F2E10C94681769832C
:102460007A838B839C832D833E834F835887E9E057
:10247000EE2EF12CEC0EFD1ECE010196B7010E944E
:1024800017168E010F5E1F4FCE010596B8010E94F0
:1024900017168A8991E089278A8BC701B801AE0196
:1024A000475E5F4F0E94DD100E944215A096E6E055
:1024B0000C948417A0E2B0E0E0E6F2E10C94681717
:1024C00069837A838B839C832D833E834F835887D4
:1024D000F9E0EF2EF12CEC0EFD1ECE010196B701B6
:1024E0000E9417168E010F5E1F4FCE010596B80190
:1024F0000E941716C701B801AE01475E5F4F0E94E8
:10250000DD100E944215A096E6E00C948417A0E22C
:10251000B0E0EDE8F2E10C945C1769837A838B8379
:102520009C832D833E834F835887CE010196BE0145
:10253000675F7F4F0E941716CE010596BE016F5E42
:102540007F4F0E9417169985923088F089898230D2
:10255000C8F0943019F4823051F404C0843029F466
:10256000923081F488E198E0C6C0923049F420E0CE
:102570009A858A89981321E02A87CE010996BBC0E3
:10258000823049F420E09A858A89981321E02A8BC9
:10259000CE014196B0C02D843E844F8458886D880A
:1025A0007E888F88988CEE24FF248701AA24BB2480
:1025B000650140E050E060E070E0E0E0F0E0C10183
:1025C00081709070892BE9F0E60CF71C081D191D2D
:1025D0009A01AB012A0D3B1D4C1D5D1D80E090E072
:1025E000A0E0B0E0E614F7040805190520F481E046
:1025F00090E0A0E0B0E0BA01A901480F591F6A1F9E
:102600007B1FAA0CBB1CCC1CDD1C97FE08C081E004
:1026100090E0A0E0B0E0A82AB92ACA2ADB2A3196C5
:10262000E032F10549F0660C771C881C991C569421
:10263000479437942794C3CFFA85EA892B893C893C
:102640008B859C85280F391F2E5F3F4F17C0CA010D
:1026500081709070892B61F016950795F794E79437
:1026600080E090E0A0E0B0E8E82AF92A0A2B1B2BD2
:1026700076956795579547952F5F3F4F77FDE7CF45
:102680000CC0440F551F661F771F17FD4160EE0CED
:10269000FF1C001F111F21503040403090E05907AF
:1026A00090E0690790E4790760F32B8F3C8FDB01A2
:1026B000CA018F779070A070B07080349105A10529
:1026C000B10561F447FD0AC0E114F10401051105EB
:1026D00029F0405C5F4F6F4F7F4F40781A8EFE1796
:1026E00011F081E08A8F4D8F5E8F6F8F78A383E02A
:1026F000898FCE0149960E944215A096E2E10C9482
:102700007817A8E1B0E0E7E8F3E10C946817698373
:102710007A838B839C832D833E834F83588789E004
:10272000E82EF12CEC0EFD1ECE010196B7010E94A1
:1027300017168E010F5E1F4FCE010596B8010E943D
:1027400017168985823040F08989823028F0C701C8
:10275000B8010E948F1601C08FEF6896E6E00C94D6
:102760008417A8E1B0E0E7EBF3E10C946817698304
:102770007A838B839C832D833E834F83588789E0A4
:10278000E82EF12CEC0EFD1ECE010196B7010E9441
:1027900017168E010F5E1F4FCE010596B8010E94DD
:1027A00017168985823040F08989823028F0C70168
:1027B000B8010E948F1601C08FEF6896E6E00C9476
:1027C0008417A8E1B0E0E7EEF3E10C9468176983A1
:1027D0007A838B839C832D833E834F83588789E044
:1027E000E82EF12CEC0EFD1ECE010196B7010E94E1
:1027F00017168E010F5E1F4FCE010596B8010E947D
:1028000017168985823040F08989823028F0C70107
:10281000B8010E948F1601C081E06896E6E00C9432
:102820008417A8E1B0E0E7E1F4E10C94681769834C
:102830007A838B839C832D833E834F83588789E0E3
:10284000E82EF12CEC0EFD1ECE010196B7010E9480
:1028500017168E010F5E1F4FCE010596B8010E941C
:1028600017168985823040F08989823028F0C701A7
:10287000B8010E948F1601C081E06896E6E00C94D2
:102880008417A8E0B0E0E7E4F4E10C9465179B013D
:10289000AC0183E08983DA01C9018827B7FD8395FC
:1028A0009927AA27BB27B82E2115310541055105C7
:1028B00019F482E089833AC08823A9F0203080E0AF
:1028C000380780E0480780E8580729F460E070E0A6
:1028D00080E09FEC30C0EE24FF248701E21AF30A67
:1028E000040B150B02C079018A018EE1C82ED12C90
:1028F000DC82CB82ED82FE820F831887C801B7018C
:102900000E94F31401971816190684F4082E04C0C7
:10291000EE0CFF1C001F111F0A94D2F7ED82FE82FD
:102920000F831887C81AD90ADC82CB82BA82CE01FB
:1029300001960E9442152896E9E00C948117ACE0BC
:10294000B0E0E5EAF4E10C946C1769837A838B8339
:102950009C83CE010196BE016B5F7F4F0E941716CC
:102960008D81823061F1823050F1843021F48E818A
:10297000882351F12EC02F81388537FD20C06E810C
:102980002F3131051CF06623F9F023C08EE190E071
:10299000821B930B29853A854B855C8504C056952F
:1029A0004795379527958A95D2F76623B1F05095CC
:1029B0004095309521953F4F4F4F5F4F0EC020E01F
:1029C00030E040E050E009C02FEF3FEF4FEF5FE70E
:1029D00004C020E030E040E050E8B901CA012C9684
:1029E000E2E00C948817EF92FF920F931F937B0104
:1029F0008C0180E0E81680E0F80681E0080780E0BE
:102A0000180788F48FEFE816F1040105110531F07D
:102A100028F088E090E0A0E0B0E017C080E090E00F
:102A2000A0E0B0E012C080E0E81680E0F80680E0A8
:102A3000080781E0180728F088E190E0A0E0B0E006
:102A400004C080E190E0A0E0B0E020E230E040E0AF
:102A500050E0281B390B4A0B5B0B04C016950795F9
:102A6000F794E7948A95D2F7F701E05EF74F8081FB
:102A7000281B310941095109C9011F910F91FF908C
:102A8000EF900895DF92EF92FF920F931F93FC0156
:102A9000E480F58006811781D1808081823048F4FE
:102AA00080E090E0A0E1B0E0E82AF92A0A2B1B2B95
:102AB000A5C0843009F49FC0823021F4EE24FF24A5
:102AC000870105C0E114F1040105110519F4E0E0E6
:102AD000F0E096C0628173819FEF623879070CF055
:102AE0005BC022E83FEF261B370B2A3131052CF063
:102AF00020E030E040E050E02AC0B801A701022EFB
:102B000004C076956795579547950A94D2F781E06A
:102B100090E0A0E0B0E004C0880F991FAA1FBB1F7F
:102B20002A95D2F70197A109B1098E219F21A023EF
:102B3000B1230097A105B10521F081E090E0A0E06C
:102B4000B0E09A01AB01282B392B4A2B5B2BDA0121
:102B5000C9018F779070A070B07080349105A10585
:102B6000B10539F427FF09C0205C3F4F4F4F5F4F3D
:102B700004C0215C3F4F4F4F5F4FE0E0F0E020305A
:102B8000A0E03A07A0E04A07A0E45A0710F0E1E00D
:102B9000F0E079018A0127C06038710564F5FB0116
:102BA000E158FF4FD801C7018F779070A070B070C7
:102BB00080349105A105B10539F4E7FE0DC080E42C
:102BC00090E0A0E0B0E004C08FE390E0A0E0B0E0CF
:102BD000E80EF91E0A1F1B1F17FF05C01695079563
:102BE000F794E794319687E016950795F794E79464
:102BF0008A95D1F705C0EE24FF248701EFEFF0E0BE
:102C00006E2F679566276795902F9F77D794DD2461
:102C1000D7948E2F8695492F462B582F5D29B701C3
:102C2000CA011F910F91FF90EF90DF900895FC0172
:102C3000DB01408151812281622F6F7770E0221F7A
:102C40002227221F9381892F880F822B282F30E083
:102C5000991F9927991F11969C931197211531055A
:102C6000A9F5411551056105710511F482E037C0E0
:102C700082E89FEF13969C938E9312979A01AB0173
:102C800067E0220F331F441F551F6A95D1F783E079
:102C90008C930DC0220F331F441F551F12968D9128
:102CA0009C911397019713969C938E9312972030C3
:102CB00080E0380780E0480780E4580758F314960E
:102CC0002D933D934D935C93179708952F3F3105B6
:102CD00079F4411551056105710519F484E08C936F
:102CE000089564FF03C081E08C9312C01C9210C051
:102CF0002F57304013963C932E93129783E08C937A
:102D000087E0440F551F661F771F8A95D1F77064BF
:102D100014964D935D936D937C93179708951F932D
:102D2000DC01FB019C91923008F447C08081823025
:102D300008F443C0943051F411961C91843099F5F5
:102D40008181682F70E0611B71093FC0843021F0E0
:102D5000923031F48230B9F18181882389F12DC01C
:102D600011961C9111978230F1F081811817D9F4D6
:102D700012962D913C91139782819381821793072C
:102D800094F028173907BCF014968D919D910D9001
:102D9000BC91A02D248135814681578128173907A0
:102DA0004A075B0718F4112341F00AC08217930702
:102DB000A407B50740F4112319F061E070E005C0E5
:102DC0006FEF7FEF02C060E070E0CB011F910895CC
:102DD000629FD001739FF001829FE00DF11D649FFF
:102DE000E00DF11D929FF00D839FF00D749FF00D8B
:102DF000659FF00D9927729FB00DE11DF91F639F2C
:102E0000B00DE11DF91FBD01CF0111240895991BDB
:102E100079E004C0991F961708F0961B881F7A95D1
:102E2000C9F78095089597FB092E07260AD077FDEC
:102E300004D02ED006D000201AF4709561957F4FF3
:102E40000895F6F7909581959F4F0895A1E21A2E67
:102E5000AA1BBB1BFD010DC0AA1FBB1FEE1FFF1F3E
:102E6000A217B307E407F50720F0A21BB30BE40B8E
:102E7000F50B661F771F881F991F1A9469F76095D5
:102E80007095809590959B01AC01BD01CF0108958F
:102E9000AA1BBB1B51E107C0AA1FBB1FA617B70780
:102EA00010F0A61BB70B881F991F5A95A9F780959C
:102EB0009095BC01CD0108952F923F924F925F9261
:102EC0006F927F928F929F92AF92BF92CF92DF923A
:102ED000EF92FF920F931F93CF93DF93CDB7DEB79F
:102EE000CA1BDB0B0FB6F894DEBF0FBECDBF099433
:102EF0002A88398848885F846E847D848C849B848A
:102F0000AA84B984C884DF80EE80FD800C811B8197
:102F1000AA81B981CE0FD11D0FB6F894DEBF0FBEC6
:0A2F2000CDBFED010895F894FFCF36
:102F2A003F065B4F666D7C077F670102040811004C
:102F3A00720061004D001100FEFF11007200610075
:102F4A004D002B00FEFF2B007A0072006100420048
:102F5A00FEFF890089007A00610072004D00FEFFC1
:102F6A001100720061004D001100FEFF1100720095
:102F7A0061004D002B00FEFF2B007A0072006100F9
:102F8A008900890089008900950089007A0061001A
:102F9A004D00FEFF72007200720072007200720031
:102FAA00720089004D0061007200FEFF7A007A000B
:102FBA007A007A007A007200720072007200610070
:102FCA0061004D0061008900FEFF7200720072000C
:102FDA00720072007200720089004D006100720076
:102FEA00FEFF7A007A007A007A007A007200720094
:102FFA007200110011007A0061004D00FEFFFFFF10
:10300A0000007A4300007A4300007A4300007A43C2
:10301A0000803B4400007A4300007A4300007A4370
:10302A0000007A4300007A4300803B4400007A4360
:10303A0000007A4300007A4300007A4300007A4392
:10304A0000803B4400007A4300007A4300007A4340
:10305A0000007A4300007A430000FA4300007A43F2
:10306A0000007A4300007A4300007A4300007A4362
:10307A0000007A4300803B4400007A4300007A4310
:10308A0000007A4300007A4300007A4300803B4400
:10309A0000007A4300007A4300007A4300007A4332
:1030AA0000007A430080BB430000FA4200007A43E2
:1030BA0000007A4300007A4300007A4300007A4312
:1030CA0000007A4300803B4400007A4300007A43C0
:1030DA0000007A430000FA4300007A4300007A4372
:1030EA000000FA4300007A4300007A4300007A4362
:1030FA000000FA4200803B4400007A4300007A4311
:10310A0000007A430080BB430000FA4200007A4381
:10311A0000007A4300007A4300007A4300007A43B1
:10312A0000007A4300007A4300007A430000FA4321
:10313A0000007A4300007A4300007A4300007A4391
:10314A000000FA4300007A4300007A430000FA4381
:10315A0000007A4300007A430080BB430000FA4231
:10316A0000803B4400007A4300007A4300007A431F
:10317A000080BB430000FA4200007A4300007A4311
:10318A0000007A4300007A4300007A4300007A4341
:10319A0000007A4300007A4300803B4400007A43EF
:1031AA0000000000610072006100420061007200CC
:1031BA006100420095009500810089008900610044
:1031CA007200720089008100720061007200610061
:1031DA004200720072008900810072006100720070
:1031EA006100420095009500A600950081008900C3
:1031FA00A10089006100420061004D002B0011000E
:10320A00FFFF00803B4400007A430000FA4300803D
:10321A00BB4400803B4400007A430000FA4300802C
:10322A00BB4400007A440000FA430080BB4400001B
:10323A007A440000FA430080BB4400007A4400004C
:10324A00FA4300803B4400007A430000FA430080BE
:10325A003B4400007A430000FA430080BB4400006C
:10326A007A440000FA4300803B4400007A4300009D
:10327A00FA4300803B4400007A430000FA4300808E
:10328A00BB4400007A440000FA4300803B4400003B
:10329A007A430000FA430080BB440080BB4400002C
:1032AA00FA430000FA430000FA4300803B4400005E
:1032BA007A430000FA430080BB4400000000720019
:1032CA007200720072005600720072007200720080
:1032DA005600720072005600720095008F00FEFFC1
:1032EA00A100A100A100A10095008F008F008F000E
:1032FA008F00810072007200720061006100560046
:10330A00FEFF7200720072007200560072007200B4
:10331A00720072005600720072005600720072004B
:10332A00950095008F00FEFFA100A100A100A10059
:10333A0095008F008F008F008F008100720072004D
:10334A00720081008F009500FEFF61002B00610072
:10335A0081009500950095009500720056002B009B
:10336A0056007200FEFF61002B006100810095008B
:10337A009500950095009500A10095008F008100A9
:10338A00720081008F00FFFF00007A430000FA43B9
:10339A0000007A430000FA430000FA4300007A432F
:1033AA000000FA4300007A430000FA430000FA439F
:1033BA0000007A430000FA4300007A430000FA430F
:1033CA000000FA430080BB4400007A4300007A43BD
:1033DA000000FA4300007A430000FA430000FA436F
:1033EA0000007A430000FA4300007A430000FA43DF
:1033FA000000FA4300007A430000FA4300007A43CF
:10340A000000FA430000FA430080BB4400007A43FC
:10341A0000007A430000FA4300007A430000FA43AE
:10342A000000FA4300007A430000FA4300007A439E
:10343A000000FA430000FA4300007A430000FA430E
:10344A0000007A4300007A4300007A4300007A437E
:10345A0000007A430080BB4400007A4300007A43AC
:10346A000000FA4300007A430000FA430000FA43DE
:10347A0000007A430000FA4300007A430000FA434E
:10348A000000FA4300007A430000FA4300007A433E
:10349A000000FA430000FA430080BB4400007A436C
:1034AA000000FA430000FA430000FA430000FA431E
:1034BA000000FA4300007A4300007A4300007A448D
:1034CA000000FA430000FA430000FA430000FA43FE
:1034DA000080BB4400007A430000FA430000FA432C
:1034EA000000FA430000FA430000FA4300007A435E
:1034FA0000007A4300803B4400007A430000FA430C
:10350A000000FA430000FA430000FA430000FA43BD
:10351A000000FA4300007A44000000000E01840310
:10352A009E04E001E20368056A775055585C385EEC
:10353A00010204081020408000000100020001007E
:10354A000300010002000100040001000200010062
:10355A000300010002000100050001000200010051
:10356A000300010002000100040001000200010042
:10357A000300010002000100060001000200010030
:10358A000300010002000100040001000200010022
:10359A000300010002000100050001000200010011
:1035AA000300010002000100040001000200010002
:1035BA0003000100020001000700010002000100EF
:1035CA0003000100020001000400010002000100E2
:1035DA0003000100020001000500010002000100D1
:1035EA0003000100020001000400010002000100C2
:1035FA0003000100020001000600010002000100B0
:10360A0003000100020001000400010002000100A1
:10361A000300010002000100050001000200010090
:10362A000300010002000100040001000200010081
:10363A000300010002000100000000000000000079
:10364A00000102020303030304040404040404043F
:10365A000505050505050505050505050505050510
:10366A0006060606060606060606060606060606F0
:10367A0006060606060606060606060606060606E0
:10368A0007070707070707070707070707070707C0
:10369A0007070707070707070707070707070707B0
:1036AA0007070707070707070707070707070707A0
:1036BA000707070707070707070707070707070790
:1036CA000808080808080808080808080808080870
:1036DA000808080808080808080808080808080860
:1036EA000808080808080808080808080808080850
:1036FA000808080808080808080808080808080840
:10370A00080808080808080808080808080808082F
:10371A00080808080808080808080808080808081F
:10372A00080808080808080808080808080808080F
:10373A0008080808080808080808080808080808FF
:00000001FF
